:020000040000FA
:040000008031102813
:100008007E1480312000911D0A280B280E2881318A
:100018009C2180317E1009008031122882311822FB
:100028008031F9007E3084008130850020308600E0
:10003800003087001E30823109228031DE30840092
:1000480080308500A0308600003087002E30823155
:10005800092280310C3084008130850020308600F0
:10006800013087002E30823109228031F601F701F4
:10007800F8013E308400003085000D3082310F22B7
:1000880080317E1020008031A62820004035A03E17
:1000980086008701403FCB00413FCC00E830CD00CF
:1000A8000330CE0081315E21803101302000C40749
:1000B8000030C53D4C084502031D64284B08440226
:1000C800031C672868287B28C401C5014008013E35
:1000D800C0000030413DC100003041021730031913
:1000E8004002031C782879287B28C001C1014F08E9
:1000F8005004031980288128A5285008D2004F08E9
:10010800D100520DD20CD10C0130C8070030C93DC6
:1001180052084902031D922851084802031C9528D9
:100128009628A528031022000D1C031403189D28E7
:10013800A02822000D14A22822000D102000C801BA
:10014800C9010800FB30210099008131F12180317B
:1001580082310122803182311522803124008E15AE
:100168000E1600302000CB00CC003230D3005308EC
:10017800CD0081313A21803121008D0122000D10FE
:1001880020003E083F040319CA28CB28C42840355C
:10019800203E8600013087000135203E8600870119
:1001A800403FCF00413FD000803149208031C428F2
:1001B800803110280434003402340034013400340F
:1001C800023400340234003404340034013400347E
:1001D8000134003401340034013400340434003470
:1001E8000134003401340034013400340134003463
:1001F800043400340234003401340034023400344E
:10020800023400340234003402340034043400343C
:10021800063400340A3400340C3400340A34003410
:10022800063400340834003406340034083400340A
:1002380006340034083400340A3400340A340034F4
:10024800093400340A3400340834003406340034E5
:100258000A3400340C3400340D3400340D340034C6
:100268000D3400340A3400340C34003420008C017E
:100278008D018E0122008C018D018E0123008C01DD
:100288008D0121008C018D018E010330990419081C
:1002980087396838990099130B178B1720004B087A
:1002A8004C04031D582959295D294D088131B9216C
:1002B80081310800F401F50120004B1C64296529EF
:1002C80069294D08F4074E08F53D0130CD35CE0DAE
:1002D800890B6A290130CC36CB0C890B6F294B0866
:1002E8004C04031D7829792960297508CC00740805
:1002F800CB00080000340034403400343934003472
:10030800333400342E3400342B3400342634003493
:1003180022340034203400341D34003419340034BD
:1003280016340034153400341334003411340034D6
:100338002400941AA029A129B6291419A429A529A9
:10034800B6298131D5218131F3007308F8005B307B
:100358007806031DB029B129B62901302000BE0056
:100368000030BF00200091110800F50021008E1513
:100378000E16803024009400753592007508F4003C
:1003880074082000CA00240095011510951415154D
:100398009511151695161614210091152000911126
:1003A8000800200091112400110814101516141CBF
:1003B800DE29DF29DB29961616162000911DE5296E
:1003C800E629E129911124001108F0007008F200D3
:1003D80015162000911172080800073021008C00C2
:1003E80023008C0121008D0123008D0121008E1531
:1003F8000E1640302000980008008B170B172000BD
:1004080091012100910111140800FE0012001E0044
:10041800FE0B0A2A0034640080010131890B102A7E
:0A04280000342100951308003C3455
:020000040001F9
:04000E00E7FFFFFF0A
:00000001FF
