:020000040000FA
:0400000080313828EB
:100008007E1480312000111C0A280B281C287A3500
:10001800203E86008701403FF000413FF1008031DB
:10002800A920803120001110FF309700FE30960083
:10003800911C1F2820282F287A35203E860087010A
:10004800403FF000413FF1008031A920803120007D
:100058009110FE309A00911D3228332836288031BD
:10006800F72080317E10090080313A2881318321C0
:100078008031FD00523084008130850020308600B8
:1000880000308700143081317D218031FA01FB0175
:10009800FC01B401B501B601B701B801B901BA0153
:1000A8007E10200081313C2924001512F701141D0F
:1000B8005E285F28A628200091112400110814103A
:1000C8007008860071088700010891001516200045
:1000D800911D6F2870286B2891110130F300730867
:1000E800F707A1287708F300F40173087007860062
:1000F8007408713D87000108910015162000911DB4
:100108008628872882287708013EF30000300318E4
:100118000130F4007408803AF50080307502031D40
:1001280097287208730203189A289B289F28013081
:10013800F3007308F707200091112400161FA52863
:10014800A628762820009111080001302000B60763
:100158000030B73D00303702323003193602031C35
:10016800B628B728D928B601B7010130B40700303E
:10017800B53D00303502323003193402031CC5285E
:10018800C628D928B401B5017A08013EFA00003022
:100198007B3DFB0000307B020A3003197A02031C06
:1001A800D628D728D928FA01FB010130B807003032
:1001B800B93D71083906031DE32870083806031D88
:1001C800E628E728F628031022000D1C031403185C
:1001D800EE28F12822000D14F32822000D1020002B
:1001E800B801B90108002400941AFB28FC280B293F
:1001F8001419FF2800290B29813120218031F800AA
:100208007808FC000130F8007808FD071D29941AC9
:100218000E290F291D29141D122913291D29023001
:10022800F0000030F100F201F20A803158208031EC
:1002380006292000911108002000911124001108BE
:1002480014101516141C29292A292629961616165B
:100258002000911D302931292C29911124001108E1
:10026800F0007008F20015162000911172080800BD
:100278006B302100990081316621813181317521EE
:100288008131FC3021008D0022000D10FF3020004C
:100298009700FE3096001814803138285534003401
:1002A800503400344C34003448340034443400347E
:1002B800403400343C3400343934003436340034AB
:1002C8003334003421008C0123008C0121008D017E
:1002D80023008D0121008E110E124030200098005D
:1002E80008008B170B1720009101210091011114B0
:1002F8000800FE0012001E00FE0B7E2900343C346C
:00000001FF
