:020000040000FA
:0400000080311B2808
:100008007E1480312000911D0A280B28192881317F
:10001800DF2180315B307806031D13281428192846
:1000280001302000CE000030CF007E100900803162
:100038001D28823118228031F900E3308400803095
:10004800850020308600003087002E30823109225A
:1000580080313F30840081308500A0308600003038
:1000680087002430823109228031113084008130A8
:10007800850020308600013087002E308231092229
:100088008031F601F701F8014E3084000030850018
:100098000D3082310F2280317E1020008031AA2855
:1000A80020005035203E86008701403FDB00413F5D
:1000B800DC00A030DD000F30DE0081318721803187
:1000C80001302000D4070030D53D5C085502031DDF
:1000D8006F285B085402031C722873288628D401F1
:1000E800D5015008013ED0000030513DD10000300C
:1000F8005102173003195002031C832884288628CC
:10010800D001D1015F08600403198B288C28A92825
:100118000130D8070030D93D60085902031D9628E0
:100128005F085802031C99289A28A928031022005E
:100138000D1C03140318A128A42822000D14A628B6
:1001480022000D102000D801D9010800FB30210041
:1001580099008131F121803182310122803182314F
:100168001522803124008E150E1600302000DB0089
:10017800DC003230E1006108DD008131632180312B
:1001880021008D0122000D10D9285035203E86000F
:10019800013087000135A03E86008701403FDF001F
:1001A800413FE00080315420803120004E084F0448
:1001B800031DDF28E028C928E02880311B280434E3
:1001C8000034023400340134003402340034023480
:1001D8000034043400340134003401340034013470
:1001E8000034013400340434003401340034013460
:1001F800003401340034013400340434003402344F
:10020800003401340034023400340234003402343F
:1002180000340234003404340034063400340A3420
:1002280000340C3400340A34003406340034083402
:1002380000340634003408340034063400340834FA
:1002480000340A3400340A340034093400340A34DF
:10025800003408340034063400340A3400340C34D2
:1002680000340D3400340D3400340D3400340A34B5
:1002780000340C34003400340034563400344C3428
:1002880000344434003440340034393400343334D6
:1002980000342E3400342B34003426340034223415
:1002A8000034203400341D3400341934003416343A
:1002B8000034153400341334003411340034200071
:1002C8008C018D018E0122008C018D018E0123008D
:1002D8008C018D0121008C018D018E010330990460
:1002E800190887396838990099130B178B1720005C
:1002F8005B085C04031D8129822986295D088131F8
:10030800A72181310800F401F50120005B1C8D292B
:100318008E2992295D08F4075E08F53D0130DD3528
:10032800DE0D890B93290130DC36DB0C890B98290B
:100338005B085C04031DA129A22989297508DC0032
:100348007408DB000800F50021008E150E168030B9
:1003580024009400753592007508F4007408200094
:10036800DA00240095011510951415159511151628
:1003780095161614210091152000911108002000EF
:1003880091112400110814101516141CCC29CD291C
:10039800C929961616162000911DD329D429CF29CC
:1003A800911124001108F0007008F20015162000C1
:1003B8009111720808002400941AE329E429EE290F
:1003C8001419E729E829EE298131C3218131F30085
:1003D8007308F800200091110800073021008C00F4
:1003E80023008C0121008D0123008D0121008E1531
:1003F8000E1640302000980008008B170B172000BD
:1004080091012100910111140800FE0012001E0044
:10041800FE0B0A2A0034640080010131890B102A7E
:0A04280000342100951308003C3455
:020000040001F9
:04000E00E7FFFFFF0A
:00000001FF
