:020000040000FA
:0400000080312A28F9
:100008007E1480312000111C0A280B2821287C35F9
:10001800203E8600013087000135A03E860087011A
:10002800403FF600413FF7008031622080312000D8
:100038001110FF309700FE309600911D24282528C6
:1000480028288231022280317E10090080312C2834
:10005800033084008130850020308600003087001E
:100068002F30823131228031603084008130850028
:10007800A030860000308700243082313122803160
:1000880032308400813085002030860001308700BE
:100098002E30823131228031FA01FB01FC01FD0151
:1000A800CF01D001D101D201D301D401D501D601AC
:1000B800D701D8017E1020008031C1287C35203E30
:1000C80086008701403FF000413FF100E830F20030
:1000D8000330F3008131C721803101302000D1077E
:1000E8000030D23D71085202031D7C28700851026D
:1000F800031C7F2880289328D101D2017C08013E67
:10010800FC0000307D3DFD0000307D0217300319F2
:100118007C02031C902891289328FC01FD01760895
:100128007704031998289928C0287708F9007608D1
:10013800F800790DF90CF80C790DF90CF80C013070
:10014800D5070030D63D79085602031DAD2878083A
:100158005502031CB028B128C028031022000D1C2A
:1001680003140318B828BB2822000D14BD28220048
:100178000D102000D501D6010800FB3021009900A0
:10018800823119228031823129228031823137220D
:10019800803124008E150E1600302000DB00DC00B4
:1001A8003230DE005E08DD0081318421803121009B
:1001B8008D0122000D10FF3020009700FE309600C0
:1001C80022000C148C140C1520000C18EC28ED28B7
:1001D800F028181022000C1420008C18F428F52898
:1001E800F828181422008C1420000C19FC28FD286B
:1001F800E828181422000C15E82880312A2804342D
:10020800003402340034013400340234003402343F
:10021800003404340034013400340134003401342F
:10022800003401340034043400340134003401341F
:10023800003401340034013400340434003402340E
:1002480000340134003402340034023400340234FF
:10025800003402340034043400343C3406340034AE
:100268000A3400340C3400340A34003406340034C0
:1002780008340034063400340834003406340034BA
:10028800083400340A3400340A34003409340034A1
:100298000A34003408340034063400340A34003494
:1002A8000C3400340D3400340D3400340D34003473
:1002B8000A3400340C34003400340034563400342A
:1002C8004C3400344434003440340034393400347D
:1002D800333400342E3400342B34003426340034C4
:1002E80022340034203400341D34003419340034EE
:1002F8001634003415340034133400341134003407
:1003080020008C018D018E0122008C018D018E014F
:1003180023008C018D0121008C018D018E01033099
:100328009904190887396838990099130B178B179E
:1003380020005B085C04031DA229A329A7295D08E6
:100348008131A821813108002000DA0021008E15B2
:100358000E1680302400940020005A3524009200A4
:1003680020005A08D9005908D70024009501151013
:100378009514151595111516951616142100911535
:10038800200091110800F401F501701CCC29CD2939
:10039800D1297208F4077308F53D0130F235F30DE1
:1003A800890BD2290130F136F00C890BD729700856
:1003B8007104031DE029E129C9297508F1007408B1
:1003C800F0000800200091112400110814101516DF
:1003D800141CEF29F029EC29961616162000911DF9
:1003E800F629F729F229911124001108F000700864
:1003F800F200151620009111720808002400941AC2
:10040800062A072A162A14190A2A0B2A162A8131BB
:10041800E6218231F30073082000D8000130F30090
:100428007308CE07200091110800073021008C00C6
:1004380023008C0121008D0123008D0121008E15E0
:100448000E1640302000980008008B170B1720006C
:1004580091012100910111140800FE0012001E00F4
:0C046800FE0B322A00342100951308001E
:020000040001F9
:04000E00E4E9FFFF23
:00000001FF
