:020000040000FA
:0400000080313928EA
:100008007E1480312000111C0A280B281D2803109B
:1000180022000D1C031403181228152822000D14A1
:10002800172822000D1020001110FF309700F03023
:100038009600911C2028212830287A35203E8600F9
:100048008701403FF000413FF1008031AA20803114
:1000580020009110FE309A00911D3328342837284B
:100068008031F82080317E10090080313B288131B1
:1000780084218031FD005330840081308500203098
:10008800860000308700143081317E218031FA01EA
:10009800FB01FC01B401B501B601B701B801B90112
:1000A800BA017E10200081313D2924001512F70184
:1000B800141D5F286028A72820009111240011082A
:1000C8001410700886007108870001089100151641
:1000D8002000911D702871286C2891110130F300BF
:1000E8007308F707A2287708F300F401730870076C
:1000F80086007408713D87000108910015162000DC
:10010800911D8728882883287708013EF30000304E
:1001180003180130F4007408803AF5008030750245
:10012800031D98287208730203189B289C28A0288E
:100138000130F3007308F707200091112400161FFF
:10014800A628A72877282000911108000130200050
:10015800B6070030B73D0030370264300319360265
:10016800031CB728B828DA28B601B7010130B4074C
:100178000030B53D00303502643003193402031CE9
:10018800C628C728DA28B401B5017A08013EFA0062
:1001980000307B3DFB0000307B020A3003197A02F5
:1001A800031CD728D828DA28FA01FB010130B80740
:1001B8000030B93D71083906031DE4287008380677
:1001C800031DE728E828F728031022000D1C031454
:1001D8000318EF28F22822000D14F42822000D102D
:1001E8002000B801B90108002400941AFC28FD2851
:1001F8000C291419002901290C2981312121803168
:10020800F8007808FC000130F8007808FD071E297E
:10021800941A0F2910291E29141D132914291E297F
:100228000230F0000030F100F201F20A803159206A
:100238008031072920009111080020009111240025
:10024800110814101516141C2A292B29272996166B
:1002580016162000911D312932292D2991112400CB
:100268001108F0007008F2001516200091117208AC
:1002780008006B302100990081316721813181317B
:1002880076218131FC3021008D0022000D10FF30D5
:1002980020009700FE3096001814803139282B343E
:1002A8000034283400342634003424340034223412
:1002B8000034203400341E3400341D3400341B3420
:1002C80000341934003421008C0123008C012100F2
:1002D8008D0123008D0121008E110E124030200067
:1002E800980008008B170B1720009101210091013D
:1002F80011140800FE0012001E00FE0B7F290034B6
:020308003C3483
:020000040001F9
:04000E00FCFFFFFFF5
:00000001FF
