:020000040000FA
:040000008031102813
:100008007E1480312000911D0A280B280E2881318A
:10001800A72180317E1009008031122882318A227E
:100028008031F9001130840082308500203086004C
:10003800003087001E3082317B22803147308400B7
:1000480081308500A0308600003087003030823152
:100058007B22803177308400813085002030860013
:1000680001308700303082317B228031F601F70180
:10007800F8013E308400003085000F308231812243
:1000880080317E10200080314928FB302100990002
:100098008231672280318231742280318231872215
:1000A800803124008E150E1600302000CD00CE00C1
:1000B8003230D5005508CF008131CD218031210063
:1000C8008D0122000D1020003E083F0403196D2801
:1000D8006E2897284035203E86000130870001357C
:1000E800203E86008701403FD100413FD200803149
:1000F800AE20803167287835263E86008701403F4C
:10010800F400413FF50081310B21803167287835B3
:10011800243E86008701403FF400413FF5008131CD
:100128000B21803167287808033A03197F28073A9A
:1001380003197F28013A03197F28033A03197F28F6
:100148000E3A03198B28013A03198B28AB28672824
:100158008031102820004035A03E86008701403FAE
:10016800CD00413FCE00B030CF000430D000813107
:10017800F121803101302000C4070030C53D4E0810
:100188004502031DC9284D084402031CCC28CD286C
:10019800E028C401C5014008013EC0000030413DCF
:1001A800C10000304102183003194002031CDD2849
:1001B800DE28E028C001C101510852040319E528CE
:1001C800E6280A295208D4005108D300540DD40C4B
:1001D800D30C0130C8070030C93D54084902031D3B
:1001E800F72853084802031CFA28FB280A29031099
:1001F80022000D1C031403180229052922000D14DE
:10020800072922000D102000C801C9010800D030BC
:100218002000CF000730D0003B297408750403196B
:10022800162917293B297508CE007408CD004E0DF4
:10023800CE0CCD0C0130CA070030CB3D4E084B0226
:10024800031D28294D084A02031C2B292C293B2968
:10025800031022000D1C0314031833293629220029
:100268000D14382922000D102000CA01CB01FF30DF
:10027800CF07FF30D03D4F085004031D44294529BE
:100288001129F80108000434003402340034013420
:1002980000340234003402340034043400340134AD
:1002A800003401340034013400340134003404349F
:1002B8000034013400340134003401340034013492
:1002C800003404340034023400340134003402347D
:1002D800003402340034023400340234003404346C
:1002E800003404340034063400340A3400340C3446
:1002F80000340A3400340634003409340034063437
:1003080000340834003406340034083400340A3425
:1003180000340A340034093400340A340034083410
:100328000034063400340A3400340C3400340D34FC
:1003380000340D3400340D3400340A3400340D34E4
:100348000034003400342400941AAB29AC29CA299B
:100358001419AF29B029CA2982314B228131F300FF
:100368007308F8007803031DBA29BB29C129013095
:100378002000BE000030BF00CA2902307806031DE5
:10038800C629C729CA292000BE01BF012000911132
:10039800080020008C018D018E0122008C018D0146
:1003A8008E0123008C018D0121008C018D018E01AD
:1003B80003309904190887396838990099130B177D
:1003C8008B1720004D084E04031DEB29EC29F0295A
:1003D8004F0882312F2281310800F401F5012000F5
:1003E8004D1CF729F829FC294F08F4075008F53D5A
:1003F8000130CF35D00D890BFD290130CE36CD0C1B
:10040800890B022A4D084E04031D0B2A0C2AF329D6
:100418007508CE007408CD0008000034003440345C
:10042800003439340034333400342E3400342B345F
:1004380000342634003422340034203400341D348F
:1004480000341934003416340034153400341334AD
:10045800003411340034F50021008E150E1680305A
:1004680024009400753592007508F4007408200083
:10047800CC00240095011510951415159511151625
:1004880095161614210091152000911108002000DE
:1004980091112400110814101516141C542A552AF9
:1004A800512A961616162000911D5B2A5C2A572A97
:1004B800911124001108F0007008F20015162000B0
:1004C800911172080800073021008C0023008C016C
:1004D80021008D0123008D0121008E150E160800C4
:1004E8008B170B1720009101210091010800FE00D5
:1004F80012001E00FE0B7C2A0034640080010131CA
:0E050800890B822A00342100951308003C3430
:020000040001F9
:04000E00E7FFFFFF0A
:00000001FF
