:020000040000FA
:040000008031222801
:100008007E1480312000111C0A280B2820287835FE
:10001800A03E860087010135203E86008701403FCB
:10002800F600413FF70080315A208031200011103E
:10003800FF309700FE3096007E100900803124289A
:100048008131E3218031FD0040308400813085001A
:10005800203086000030870024308131DD21803156
:10006800BE30840080308500A030860000308700D4
:100078002E308131DD218031EC30840080308500E4
:1000880020308600013087002E308131DD2180311B
:10009800F801F901FA01FB01FC01C401C501C6011F
:1000A800C701C8017E10200081311A297835203E09
:1000B800860001308700403FF000413FF1003230B8
:1000C800F2000030F3008131A72180310130200097
:1000D800C6070030C73D71084702031D7528700820
:1000E8004602031C782879289B28C601C7010130DD
:1000F800C4070030C53D003045026430031944028E
:10010800031C872888289B28C401C5017808013E5C
:10011800F8000030793DF9000030790217300319F2
:100128007802031C982899289B28F801F901760879
:1001380077040319A028A128BD280130FA07003048
:10014800FB3D77087B02031DAB2876087A02031C67
:10015800AE28AF28BD28031022000D1C0314031875
:10016800B628B92822000D14BB2822000D10FA0168
:10017800FB010800063400340A3400340C3400341F
:100188000A340034063400340834003406340034A9
:100198000834003406340034083400340A34003497
:1001A8000A340034093400340A3400340834003482
:1001B800063400340A3400340C3400340D3400346E
:1001C8000D3400340D3400340A3400340C34003457
:1001D800043400340234003401340034023400346E
:1001E800023400340434003401340034013400345F
:1001F8000134003401340034043400340134003450
:10020800013400340134003401340034043400343F
:10021800023400340134003402340034023400342F
:100228000234003402340034043400347B302100BA
:1002380099008131C62181318131D5218131323016
:100248002000CD004D08CB00003081316421813180
:10025800FC3021008D0022000D10FF302000970097
:10026800FE30960018104803031D3B293C29372906
:1002780018143729803122280034003456340034C9
:100288004C340034443400344034003439340034BD
:10029800333400342E3400342B3400342634003404
:1002A80022340034203400341D340034193400342E
:1002B8001634003415340034133400341134003447
:1002C8002000CC008C018D018E0122008C018D0153
:1002D8008E0123008C018D0121008C018D018E017E
:1002E80003309904190887396838990099130B174E
:1002F8008B1720004C08031D8229832987294B0866
:1003080081318821813108002000CA0021008E1522
:100318000E1680302400940020004A3524009200F4
:1003280020004A08C9004908FC002400950115105E
:100338009514151595111516951616142100911575
:10034800200091110800F401F501701CAC29AD29B9
:10035800B1297208F4077308F53D0130F235F30D41
:10036800890BB2290130F136F00C890BB7297008D6
:100378007104031DC029C129A9297508F100740851
:10038800F000080021008C0123008C0121008D0160
:1003980023008D0121008E110E124030200098009C
:1003A80008008B170B1720009101210091011114EF
:1003B8000800FE0012001E00FE0BDE2900343C344B
:020000040001F9
:04000E00E7E9FFFF20
:00000001FF
