:020000040000FA
:0400000080313928EA
:100008007E1480312000111C0A280B281D2803109B
:1000180022000D1C031403181228152822000D14A1
:10002800172822000D1020001110FF309700AE3065
:100038009600911C2028212830283435203E86003F
:100048008701403FF600413FF7008031A82080310A
:1000580020009110FE309A00911D3328342837284B
:1000680081311B2180317E10090080313B2881318C
:10007800AD218031FC00793084008130850020304A
:1000880086000030870014308131A4218031FA01C4
:10009800FB01B401B501B601B701B801B9017E1081
:1000A80020008131602924001512F701141D5D28F4
:1000B8005E28A5282000911124001108141070084A
:1000C8008600710887000108910015162000911D0F
:1000D8006E286F286A2891110130F3007308F7071A
:1000E800A0287708F300F4017308700786007408E5
:1000F800713D87000108910015162000911D852883
:10010800862881287708013EF30000300318013063
:10011800F4007408803AF50080307502031D9628B3
:1001280072087302031899289A289E280130F30050
:100138007308F707200091112400161FA428A5288A
:10014800752820009111080001302000B607003002
:10015800B73D75303702303003193602031CB52815
:10016800B628CC28B601B7010130B4070030B53D38
:100178000A30F0000030F1003508F3003408F200CE
:100188008031E720803171082000B5007008B40084
:100198000130B8070030B93D77083906031DD62865
:1001A80076083806031DD928DA28E6280310220025
:1001B8000D1C03140318E128E42822000D14E62876
:1001C80022000D100800700871040319EC28ED28AE
:1001D8001629F501F50AF9280130F035F10D890BDA
:1001E800F1280130F4007408F507F11FFC28FD28F8
:1001F800F02871087302031D032970087202031C9A
:10020800062907290B297008F2027108F33B01300F
:10021800F136F00C890B0C290130F502031D152964
:100228001629FD287308F1007208F0000800240060
:10023800941A1F2920292F291419232924292F2901
:10024800813144218131F8007808FB000130F80041
:100258007808FC074129941A322933294129141DA9
:100268003629372941290230F0000030F100F20127
:10027800F20A8031572081312A2920009111080083
:10028800200091112400110814101516141C4D2972
:100298004E294A29961616162000911D54295529CB
:1002A8005029911124001108F0007008F200151669
:1002B80020009111720808006B30210099008131EB
:1002C8008D21813181319C2181318131AA21813176
:1002D800FC3021008D0022000D10FF302000970017
:1002E800F03096001814803139282B340034283423
:1002F80000342634003424340034223400342034CA
:1003080000341E3400341D3400341B3400341934D6
:10031800003421008C0123008C0121008D01230071
:100328008D0121008E110E12403020009800080027
:100338008B170B172000910121009101111408005F
:10034800FE0012001E00FE0BA529003421009513A3
:0403580008003C3429
:00000001FF
