:020000040000FA
:08000000803102288731F12F45
:100B1E00FE0012001E00FE0B902D00348F303100AF
:100B2E008D05F0308D050730930408008B170B17D9
:100B3E002E0016140B143D009001080022009E1684
:100B4E001E161D122C0090173C00A4170800200042
:100B5E0097125830F0000030F1008531E4258531D0
:100B6E00080022009F15CE309B009C019E171E167A
:100B7E001E131D139D171D1208006430F000003067
:100B8E00F1008531E425853122009E121E121D16BC
:100B9E002C0090133C00A4130800FF34FF34FF34E4
:100BAE00FF34FF34FF34FF34FF34FF34FF34FF349F
:100BBE00FF34FF34FF34FF34FF347108F400700843
:100BCE00F300ED2DFF30F307FF30F43D7408803A4B
:100BDE00F20080307202031DF62D013073020318ED
:100BEE00F92DFA2DE92D08003C00A4130330A600C0
:100BFE002430A7000230A8002530A9000230AA0038
:100C0E0025140830AB00A5102230AC00251580301D
:100C1E00AD00A511F830A405080011303E00A0006B
:100C2E001030A10011303D00B10005303E00A20091
:100C3E000630A30012303D00BD001330BE0003305D
:100C4E003E009D00C31220009212080020001114D5
:100C5E003E0038103914200093103E00CE102000B4
:100C6E0013113E004E11200093113E00CE112000B4
:100C7E0013133E004E13200093173E00CE130800B0
:100C8E0085319525863186312D26863185319D25F6
:100C9E0086318631142686318531B82586318631E6
:100CAE00622686318531FB2586318631C82686310E
:100CBE005C2E803102282000131593152C00901302
:100CCE001008F839043890000C308E0007308F0071
:100CDE0012131208F339083892001208CF3920384F
:100CEE00920013100C10F0308D052000131193118B
:100CFE000800F401F501701C852E862E8A2E7208CE
:100D0E00F4077308F53D0130F235F30D890B8B2E88
:100D1E000130F136F00C890B902E70087104031D12
:100D2E00992E9A2E822E7508F1007408F000080094
:100D3E007708F1007608F0000330F2000030F3007F
:100D4E008631802686317108FA007008F900BA2EB5
:100D5E002E000F1EB32EB42EAF2E22009A01FF309E
:100D6E00F907FF30FA3D7A08803AF80080307802B1
:100D7E00031DC32E013079020318C62EC72EAF2EC7
:100D8E000800FF302000B800FF30B900B601B701EF
:100D9E00BB01BC018531A52586318531AE25863155
:100DAE0001302000B8070030B93D10303806390444
:100DBE00031DE22EE32EE52EB801B9013808203EC0
:100DCE00860087010108FB007B08BA003A08FB0089
:100DDE000230FB36890BF02E7B080339FC00FD0137
:100DEE00FC0EFD0EF030FD057C080F39FD04F030D1
:100DFE00FC057C08B0007D08B1003A08FB00043009
:100E0E00FB36890B072F7B080339FC00FD01FC0E16
:100E1E00FD0EF030FD057C080F39FD04F030FC05A9
:100E2E007C08B2007D08B3003A08FB000630FB36A2
:100E3E00890B1E2F7B080339FC00FD01FC0EFD0EF5
:100E4E00F030FD057C080F39FD04F030FC057C0800
:100E5E00B4007D08B5000130BB070030BC3D3C0836
:100E6E00803AFB0080307B02031D3F2F1E303B0279
:100E7E00031C422F432F462F2000BB01BC01200034
:100E8E003C08803AFB0080307B02031D502F0B3054
:100E9E003B020318532F542F6C2F2E000F1E582F6A
:100EAE00592F542F22009A012E000F1E5F2F602FF4
:100EBE005B2F2000300822009A002E000F1E682F94
:100ECE00692F642F22009A01CA2F20003C08803A15
:100EDE00FB0080307B02031D762F15303B0203187A
:100EEE00792F7A2F902F2E000F1E7E2F7F2F7A2F85
:100EFE002000320822009A002E000F1E872F882F06
:100F0E00832F22009A012E000F1E8E2F8F2F8A2FD5
:100F1E00692F20003C08803AFB0080307B02031DC5
:100F2E009A2F1F303B0203189D2F9E2FB62F2E0097
:100F3E000F1EA22FA32F9E2F22009A012E000F1EEE
:100F4E00A92FAA2FA52F22009A012E000F1EB02F17
:100F5E00B12FAC2F2000340822009A00CA2F2E0089
:100F6E000F1EBA2FBB2FB62F22009A012E000F1E76
:100F7E00C12FC22FBD2F22009A012E000F1EC82F87
:100F8E00C92FC42F692F01302000B6070030B73D9E
:100F9E00103036063704031DD52FD62FD72EB601A7
:100FAE00B7018531C42586318531A5258631853138
:100FBE00AE25863120000C1CE52FE62FD72E1030E3
:100FCE00F6000030F70086319F2686318531C42524
:100FDE0086310800D43084008530850020308600AC
:100FEE0000308700103085318F2587312000863103
:020FFE00472E7C
:020000040001F9
:02000E008F3F22
:020012009F3F0E
:00000001FF
