:020000040000FA
:08000000803102288731E72F4F
:100B3E00FE0012001E00FE0BA02D00348F3031007F
:100B4E008D05F0308D050730930408008B170B17B9
:100B5E002E0016140B143D009001080023001114F2
:100B6E002E000F1CBB2DBC2DB72D0F10080023001F
:100B7E0011152E000F1CC42DC52DC02D0F100800F1
:100B8E0022009E161E161D122C0090173C00901768
:100B9E000800200097125830F0000030F100863126
:100BAE002E2685310800F000700823008C002E00E0
:100BBE000F1CE22DE32DDE2D0F10080022009F15D5
:100BCE00CE309B009C019E171E161E131D139D17E3
:100BDE001D120800200012123E0043122000921235
:100BEE003E00C312200093013E00CE010800F20029
:100BFE008531B525853172358531DA258531710816
:100C0E008531DA2585318531BE2585310800643080
:100C1E00F0000030F10086312E26863122009E1221
:100C2E001E121D162C0090133C0090130800FF346A
:100C3E00FF34FF34FF34FF34FF34FF34FF34FF340E
:100C4E00FF34FF34FF34FF34FF34FF34FF347108B8
:100C5E00F4007008F300372EFF30F307FF30F43D39
:100C6E007408803AF20080307202031D402E01306B
:100C7E0073020318432E442E332E08002000121246
:100C8E003E004312200092123E00C3122300900138
:100C9E00101090101011901509308D0090169101C2
:100CAE0080308F002E0019140F1008003C00901396
:100CBE0003309200243093000230940025309500CA
:100CCE0002309600111408309700911022309800CF
:100CDE001115803099009111F83090050800F1003F
:100CEE0020008C018D018E019601970198013E0026
:100CFE00B801C30120009101920193010B178B17CC
:100D0E00710803198B2E8C2E8F2E86314526863137
:100D1E00080011303E00A7001030A60016303D002E
:100D2E00B10005303E00A1000630A2000C303D009F
:100D3E00C5000D30C6001130BD001230BE000130AE
:100D4E003E00A300CE112000931108002000931442
:100D5E0013152C0090131008F839043890000C303D
:100D6E008E0007308F0012131208F33908389200E4
:100D7E001208CF392038920013100C10F0308D0568
:100D8E002000931013110800F401F501701CD02EF1
:100D9E00D12ED52E7208F4077308F53D0130F235C9
:100DAE00F30D890BD62E0130F136F00C890BDB2EAC
:100DBE0070087104031DE42EE52ECD2E7508F1008A
:100DCE007408F00008007708F1007608F000033090
:100DDE00F2000030F3008631CB2686317108FA001E
:100DEE007008F900052F2E000F1EFE2EFF2EFA2E74
:100DFE0022009A01FF30F907FF30FA3D7A08803A57
:100E0E00F80080307802031D0E2F0130790203188E
:100E1E00112F122FFA2E08008531A5258731853125
:100E2E00F12587318531AD25873186319026873181
:100E3E008531E52587318631AD26873186315D26B0
:100E4E00873132302000BB003B08F0000130863184
:100E5E0076268731F101F10A32308531FE25873150
:100E6E0087313D278731372F80310228FF30200010
:100E7E00B800FF30B900B601B7018531C7258731FB
:100E8E008531D025873101302000B8070030B93DBB
:100E9E00103038063904031D552F562F582FB80120
:100EAE00B9013808203E860087010108FB007B0847
:100EBE00BA003A08FB000230FB36890B632F7B0821
:100ECE000339FC00FD01FC0EFD0EF030FD057C0823
:100EDE000F39FD04F030FC057C08B0007D08B10030
:100EEE003A08FB000430FB36890B7A2F7B08033956
:100EFE00FC00FD01FC0EFD0EF030FD057C080F39E7
:100F0E00FD04F030FC057C08B2007D08B3003A0801
:100F1E00FB000630FB36890B912F7B080339FC0052
:100F2E00FD01FC0EFD0EF030FD057C080F39FD04B1
:100F3E00F030FC057C08B4007D08B5002E000F1EB5
:100F4E00A92FAA2FA52F2000320822009A002E00CA
:100F5E000F1EB22FB32FAE2F2000300822009A00A2
:100F6E002E000F1EBB2FBC2FB72F200034082200DF
:100F7E009A0001302000B6070030B73D103036061B
:100F8E003704031DCB2FCC2F4A2FB601B701863164
:100F9E000E2687318531C72587318531D02587319A
:100FAE0020000C1CDB2FDC2F4A2F1030F6000030F7
:100FBE00F7008631EA26873186310E268731080002
:100FCE001E30840086308500203086000030870079
:100FDE00103085319F258731BC01BD01BE01BF0197
:100FEE00C001C101C201C301C401C5012000873186
:020FFE00132FAF
:020000040001F9
:02000E008F3F22
:020012009F3F0E
:00000001FF
