:020000040000FA
:0400000080316728BC
:100008007E1480312E000D1C0A280B2865280D103F
:1000180021000D082000E200E30121001E35203EEA
:100028008600870120006208C03F6308C13F51086D
:10003800803A803C031D2328500821000D02031834
:1000480026282728392821000D082000E200E3018E
:100058006208D0006308D10021001E082000E200D9
:10006800E3016208B4006308B50001302000E20033
:10007800620821009E070A301E02031C44284528F6
:10008800652820005108803AE20080306202031D92
:100098004F287030500203185228532863288031A3
:1000A80081208031FF302000D0000030D10034089A
:1000B800E2006208F10054088231C0228031210038
:1000C8009E017E10090080316928713084008230D9
:1000D80085004030860000308700153083312D239D
:1000E8008031203084000030850020308331332374
:1000F80080317E10200081313829FF302000DF0058
:10010800FF30E000DD01DE018331132380318331CC
:1001180009238031C8302000D5000030D6002029BE
:100128000130DF070030E03D10305F066004031D3A
:100138009E289F28A128DF01E0015F08403E860035
:1001480087010108FB007B08E1006108FB00023021
:10015800FB36890BAC287B080339FC00FD01FC0E3B
:10016800FD0EF030FD057C080F39FD04F030FC056C
:100178007C08D7007D08D8006108FB000430FB36F6
:10018800890BC3287B080339FC00FD01FC0EFD0E1A
:10019800F030FD057C080F39FD04F030FC057C08C3
:1001A800D9007D08DA006108FB000630FB36890BB0
:1001B800DA287B080339FC00FD01FC0EFD0EF03047
:1001C800FD057C080F39FD04F030FC057C08DB00D8
:1001D8007D08DC002E000F1EF228F328EE282000F0
:1001E800590822009A002E000F1EFB28FC28F72829
:1001F8002000570822009A002E000F1E0429052906
:10020800002920005B0822009A0001302000DD0749
:100218000030DE3D10305D065E04031D14291529EB
:100228002029DD01DE018231B022803183311323A0
:100238008031833109238031FF302000D507FF301A
:10024800D63D550A031D2C29560A031D2C292D2994
:1002580094281030F6000030F70081316721803192
:100268008231B02280310800833125238131013069
:100278002100A0000030A100200054082100A500A2
:100288002508A2008231D02281318131F0218131CB
:1002980082319B2281318231FF228131813190214B
:1002A80081318231DD2281318131D2218131823126
:1002B800412281313E004416C41682310D2281311B
:1002C8006129803167287708F1007608F00003304B
:1002D800F2000030F3008131B32181317108FA0056
:1002E8007008F90082292E000F1E7B297C297729A6
:1002F80022009A01FF30F907FF30FA3D7A08803A68
:10030800F80080307802031D8B2901307902031828
:100318008E298F297729080011303E00A700103058
:10032800A60016303D00B10005303E00A1000630A1
:10033800A2000C303D00C8000D30C90016303E0048
:100348009C0017309D0011303D00BD001230BE00EA
:1003580001303E00A300CE11200093110800F401E3
:10036800F501701CB829B929BD297208F40773086A
:10037800F53D0130F235F30D890BBE290130F13618
:10038800F00C890BC32970087104031DCC29CD29F1
:10039800B5297508F1007408F000080020009314CE
:1003A80013152C0090131008F839043890000C30FD
:1003B8008E0007308F0012131208F33908389200A4
:1003C8001208CF392038920013100C10F0308D0528
:1003D8002000931013110800200093103E00CE1047
:1003E800200013113E004E11200093113E00CE1143
:1003F800200013133E004E13200093133E00CE132B
:10040800200012163E004312200092163E00C3122E
:10041800080020009101FF303E00B900E8302100BB
:10042800A0000330A100823128228231FF30200051
:100438009100FF303E00B800210013141318252A3C
:10044800262A222A0000080021002108A4002008EA
:10045800A300332AFF302100A307FF30A43D24085E
:10046800803AA20080302202031D3C2A0130230278
:1004780003183F2A402A2E2A08003C009013033014
:100488009200243093000230940025309500023009
:100498009600111408309700911022309800111519
:1004A800803099009111F830900508007108F40027
:1004B8007008F300632AFF30F307FF30F43D740837
:1004C800803AF20080307202031D6C2A01307302F8
:1004D80003186F2A702A5F2A0800FF34FF34FF349C
:1004E800FF34FF34FF34FF34FF34FF34FF34FF346C
:1004F800FF34FF34FF34FF34FF34FF3400347034EA
:1005080000343234200012163E00431220009216A6
:100518003E00C31223009A011A109A101A119A1554
:10052800093097009A169B01803099000800FF3027
:1005380020009100FF303E00B80080302100930079
:10054800F03094000F3095000130980001309E0083
:100558001A12FC309A0508006430F0000030F100EF
:1005680082315A22823122009E121E121D162C0040
:1005780090133C0090130800F2008231F42282317B
:1005880072358231E922823171088231E922823161
:1005980083311C23823108000B178B172100200898
:1005A80021040319D82AD92ADC2A823186228231E9
:1005B800080022009F15CE309B009C019E171E1636
:1005C8001E131D139D171D120800F000700823004C
:1005D80096002E000F1DF12AF22AED2A0F110800AD
:1005E8002E000F1123001B142E000F1DFC2AFD2ABC
:1005F800F82A0F1108008B170B172E0016140B146E
:100608003D0090012E001714080020009712583062
:10061800F0000030F10082315A22833108002200B4
:100628009E161E161D122C0090173C0090170800ED
:1006380023001B152E000F1D222B232B1E2B0F1101
:1006480008008F3031008D05F0308D050730930498
:100658000800FE0012001E00FE0B2E2B0034640062
:0A06680080010131890B342B0034AE
:020000040001F9
:02000E008F3F22
:020012009F3F0E
:00000001FF
