:020000040000FA
:08000000803102288731E72F4F
:100DAC00FE0012001E00FE0BD72E00348F303100D7
:100DBC008D05F0308D050730930408008B170B1749
:100DCC002E0016140B143D00900108002300111581
:100DDC002E000F1CF22EF32EEE2E0F100800F0003A
:100DEC00700823008C002E000F1CFD2EFE2EF92EF9
:100DFC000F100800200012163E004312200092161D
:100E0C003E00C312200093013E00CE0108002E00CC
:100E1C000F1023001114D030F0000730F10087318F
:100E2C00502787312E000F100800F60087310D2750
:100E3C00873176358631F526873175088631F5266A
:100E4C0087318631EC2687310800FF34FF34FF34BC
:100E5C00FF34FF34FF34FF34FF34FF34FF34FF34EE
:100E6C00FF34FF34FF34FF34FF34200012163E00F1
:100E7C004312200092163E00C31223009001101062
:100E8C0090101011901509308D0090169101803042
:100E9C008F0008007108F4007008F300592FFF3020
:100EAC00F307FF30F43D7408803AF2008030720290
:100EBC00031D622F013073020318652F662F552F07
:100ECC0008007108F4007008F300702FFF30F3076E
:100EDC00FF30F43D7408803AF20080307202031D3A
:100EEC00792F0130730203187C2F7D2F6C2F080093
:100EFC0020008C018D018E019601970198013E0016
:100F0C00B801C30120009101920193010B178B17BB
:100F1C00700871040319932F942F972F87313B2757
:100F2C008731080011303E00A7001030A6001630A3
:100F3C003D00B10005303E00A1000630A2000C308F
:100F4C003D00C5000D30C60014303E009C0015302D
:100F5C009D0011303D00BD001230BE0001303E003E
:100F6C00A300CE112000931108008631DC268731B6
:100F7C008731002787318631E426873187319827DE
:100F8C0087313E004416C4160130F0000030F100E9
:100F9C003230F7007708F20087317E2787315B30DB
:100FAC00F7007708F500323087311B278731103076
:100FBC00F0002730F100873167278731D52F80313A
:100FCC0002282B30840087308500203086000030CA
:100FDC00870010308631D6268731B001B101B201BD
:100FEC00B301B401B501B601B701B801B9012000D4
:040FFC008731BB2F4F
:020000040001F9
:02000E008F3F22
:020012009F3F0E
:00000001FF
