:020000040000FA
:08000000803102288731E72F4F
:100DE000FE0012001E00FE0BF12E00348F30310089
:100DF0008D05F0308D050730930408008B170B1715
:100E00002E0016140B143D009001080023001B1542
:100E10002E000F1D0C2F0D2F082F0F1108002E0074
:100E20000F1123001B142E000F1D172F182F132F27
:100E30000F110800F0007008230096002E000F1D0F
:100E4000222F232F1E2F0F110800200012163E0004
:100E50004312200092163E00C312200093013E0070
:100E6000CE010800F20087310F27873172358731B4
:100E70001A278731710887311A278731873106276A
:100E800087310800FF34FF34FF34FF34FF34FF3470
:100E9000FF34FF34FF34FF34FF34FF34FF34FF34BA
:100EA000FF34FF34200012163E0043122000921639
:100EB0003E00C31223009A011A109A101A119A15B3
:100EC000093097009A169B0180309900080071083C
:100ED000F4007008F300702FFF30F307FF30F43D8B
:100EE0007408803AF20080307202031D792F0130BD
:100EF000730203187C2F7D2F6C2F080020008C01BB
:100F00008D018E019601970198013E00B801C30141
:100F100020009101920193010B178B177008710447
:100F20000319932F942F972F873152278731080069
:100F300011303E00A7001030A60016303D00B10071
:100F400005303E00A1000630A2000C303D00C80074
:100F50000D30C90016303E009C0017309D00113046
:100F60003D00BD001230BE0001303E00A300CE1196
:100F70002000931108008631F62687318731252716
:100F800087318631FE2687318731982787313E00A9
:100F90004416C4160130F0000030F1003230F50084
:100FA0007508F20087317E2787315B30F5007508C0
:100FB000F10032308731322787311030F00027308E
:100FC000F100873167278731D52F803102284230E1
:100FD0008400873085002030860000308700103084
:100FE0008631F0268731B001B101B201B301B401FD
:100FF000B501B601B701B801B90120008731BB2F97
:020000040001F9
:02000E008F3F22
:020012009F3F0E
:00000001FF
